{
  "contractName": "Gachagang",
  "abi": [
    {
      "anonymous": false,
      "inputs": [
        {
          "components": [
            {
              "internalType": "string",
              "name": "name",
              "type": "string"
            },
            {
              "internalType": "enum Gachagang.Rarity",
              "name": "rarity",
              "type": "uint8"
            },
            {
              "internalType": "uint8",
              "name": "level",
              "type": "uint8"
            },
            {
              "internalType": "string",
              "name": "skill",
              "type": "string"
            }
          ],
          "indexed": false,
          "internalType": "struct Gachagang.Unit[]",
          "name": "units",
          "type": "tuple[]"
        }
      ],
      "name": "Summon",
      "type": "event"
    },
    {
      "inputs": [],
      "name": "queryId",
      "outputs": [
        {
          "internalType": "bytes32",
          "name": "",
          "type": "bytes32"
        }
      ],
      "stateMutability": "view",
      "type": "function",
      "constant": true
    },
    {
      "inputs": [],
      "name": "initialize",
      "outputs": [],
      "stateMutability": "payable",
      "type": "function",
      "payable": true
    },
    {
      "inputs": [
        {
          "internalType": "bytes32",
          "name": "_myid",
          "type": "bytes32"
        },
        {
          "internalType": "string",
          "name": "_result",
          "type": "string"
        }
      ],
      "name": "__callback",
      "outputs": [],
      "stateMutability": "nonpayable",
      "type": "function"
    },
    {
      "inputs": [
        {
          "internalType": "bytes32",
          "name": "_queryId",
          "type": "bytes32"
        },
        {
          "internalType": "string",
          "name": "_result",
          "type": "string"
        },
        {
          "internalType": "bytes",
          "name": "_proof",
          "type": "bytes"
        }
      ],
      "name": "__callback",
      "outputs": [],
      "stateMutability": "nonpayable",
      "type": "function"
    },
    {
      "inputs": [
        {
          "internalType": "uint256",
          "name": "count",
          "type": "uint256"
        }
      ],
      "name": "Pull",
      "outputs": [],
      "stateMutability": "payable",
      "type": "function",
      "payable": true
    },
    {
      "inputs": [],
      "name": "getUnits",
      "outputs": [
        {
          "components": [
            {
              "internalType": "string",
              "name": "name",
              "type": "string"
            },
            {
              "internalType": "enum Gachagang.Rarity",
              "name": "rarity",
              "type": "uint8"
            },
            {
              "internalType": "uint8",
              "name": "level",
              "type": "uint8"
            },
            {
              "internalType": "string",
              "name": "skill",
              "type": "string"
            }
          ],
          "internalType": "struct Gachagang.Unit[]",
          "name": "",
          "type": "tuple[]"
        }
      ],
      "stateMutability": "view",
      "type": "function",
      "constant": true
    },
    {
      "inputs": [],
      "name": "getBalance",
      "outputs": [
        {
          "internalType": "uint256",
          "name": "",
          "type": "uint256"
        }
      ],
      "stateMutability": "view",
      "type": "function",
      "constant": true
    }
  ],
  "bytecode": "0x608060405234801561001057600080fd5b50614985806100206000396000f3fe6080604052600436106100705760003560e01c806338bbfa501161004e57806338bbfa50146100f45780633f1be4d41461011d5780638129fc1c14610148578063d77d81091461015257610070565b8063027aa9f51461007557806312065fe0146100a057806327dc297e146100cb575b600080fd5b34801561008157600080fd5b5061008a61016e565b6040516100979190614557565b60405180910390f35b3480156100ac57600080fd5b506100b561035b565b6040516100c29190614672565b60405180910390f35b3480156100d757600080fd5b506100f260048036038101906100ed9190613e4b565b610365565b005b34801561010057600080fd5b5061011b60048036038101906101169190613e9f565b6103bf565b005b34801561012957600080fd5b50610132610417565b60405161013f9190614594565b60405180910390f35b61015061041d565b005b61016c60048036038101906101679190613f1e565b610b4c565b005b60606009805480602002602001604051908101604052809291908181526020016000905b828210156103525783829060005260206000209060030201604051806080016040529081600082018054600181600116156101000203166002900480601f01602080910402602001604051908101604052809291908181526020018280546001816001161561010002031660029004801561024e5780601f106102235761010080835404028352916020019161024e565b820191906000526020600020905b81548152906001019060200180831161023157829003601f168201915b505050505081526020016001820160009054906101000a900460ff16600481111561027557fe5b600481111561028057fe5b81526020016001820160019054906101000a900460ff1660ff1660ff168152602001600282018054600181600116156101000203166002900480601f01602080910402602001604051908101604052809291908181526020018280546001816001161561010002031660029004801561033a5780601f1061030f5761010080835404028352916020019161033a565b820191906000526020600020905b81548152906001019060200180831161031d57829003601f168201915b50505050508152505081526020019060010190610192565b50505050905090565b6000600854905090565b6103bb8282600067ffffffffffffffff8111801561038257600080fd5b506040519080825280601f01601f1916602001820160405280156103b55781602001600182028036833780820191505090505b506103bf565b5050565b60006103cc848484610bce565b60ff1614156104125761041160c8836040516020016103eb91906144af565b6040516020818303038152906040528051906020012060001c8161040b57fe5b06610cfe565b5b505050565b60065481565b600560019054906101000a900460ff168061043c575061043b61122e565b5b806104545750600560009054906101000a900460ff16155b610493576040517f08c379a000000000000000000000000000000000000000000000000000000000815260040161048a90614652565b60405180910390fd5b6000600560019054906101000a900460ff1615905080156104e5576001600560016101000a81548160ff0219169083151502179055506001600560006101000a81548160ff0219169083151502179055505b6104f2603060f81b611245565b60405180608001604052806040518060400160405280600681526020017f4b6179726f6e0000000000000000000000000000000000000000000000000000815250815260200160048081111561054457fe5b8152602001600160ff1681526020016040518060400160405280600a81526020017f566f696420736c61736800000000000000000000000000000000000000000000815250815250600a60405161059a90614518565b908152602001604051809103902060008201518160000190805190602001906105c4929190613b83565b5060208201518160010160006101000a81548160ff021916908360048111156105e957fe5b021790555060408201518160010160016101000a81548160ff021916908360ff160217905550606082015181600201908051906020019061062b929190613b83565b5090505060405180608001604052806040518060400160405280600c81526020017f46696768746572204d617961000000000000000000000000000000000000000081525081526020016003600481111561068257fe5b8152602001600160ff1681526020016040518060400160405280601581526020017f537472696b65206f662050726f766f636174696f6e0000000000000000000000815250815250600a6040516106d890614542565b90815260200160405180910390206000820151816000019080519060200190610702929190613b83565b5060208201518160010160006101000a81548160ff0219169083600481111561072757fe5b021790555060408201518160010160016101000a81548160ff021916908360ff1602179055506060820151816002019080519060200190610769929190613b83565b5090505060405180608001604052806040518060400160405280600681526020017f48757261646f00000000000000000000000000000000000000000000000000008152508152602001600260048111156107c057fe5b8152602001600160ff1681526020016040518060400160405280600c81526020017f537461666620537472696b650000000000000000000000000000000000000000815250815250600a6040516108169061452d565b90815260200160405180910390206000820151816000019080519060200190610840929190613b83565b5060208201518160010160006101000a81548160ff0219169083600481111561086557fe5b021790555060408201518160010160016101000a81548160ff021916908360ff16021790555060608201518160020190805190602001906108a7929190613b83565b5090505060405180608001604052806040518060400160405280601481526020017f466f7265737420436c6f75642050656e6775696e0000000000000000000000008152508152602001600160048111156108fe57fe5b8152602001600160ff1681526020016040518060400160405280600a81526020017f45585020466f6464657200000000000000000000000000000000000000000000815250815250600a604051610954906144ee565b9081526020016040518091039020600082015181600001908051906020019061097e929190613b83565b5060208201518160010160006101000a81548160ff021916908360048111156109a357fe5b021790555060408201518160010160016101000a81548160ff021916908360ff16021790555060608201518160020190805190602001906109e5929190613b83565b5090505060405180608001604052806040518060400160405280601381526020017f427265657a792d576f6f642050656e6775696e00000000000000000000000000815250815260200160006004811115610a3c57fe5b8152602001600160ff1681526020016040518060400160405280600a81526020017f45585020466f6464657200000000000000000000000000000000000000000000815250815250600a604051610a9290614503565b90815260200160405180910390206000820151816000019080519060200190610abc929190613b83565b5060208201518160010160006101000a81548160ff02191690836004811115610ae157fe5b021790555060408201518160010160016101000a81548160ff021916908360ff1602179055506060820151816002019080519060200190610b23929190613b83565b509050508015610b49576000600560016101000a81548160ff0219169083151502179055505b50565b806001811480610b5c5750600a81145b610b9b576040517f08c379a0000000000000000000000000000000000000000000000000000000008152600401610b9290614632565b60405180910390fd5b60005b82811015610bc957610bb66000600562030d40611541565b6006819055508080600101915050610b9e565b505050565b60007f4c0000000000000000000000000000000000000000000000000000000000000082600081518110610bfe57fe5b602001015160f81c60f81b7effffffffffffffffffffffffffffffffffffffffffffffffffffffffffffff1916141580610c9157507f500000000000000000000000000000000000000000000000000000000000000082600181518110610c6157fe5b602001015160f81c60f81b7effffffffffffffffffffffffffffffffffffffffffffffffffffffffffffff191614155b80610cbd5750600160ff1682600281518110610ca957fe5b602001015160f81c60f81b60f81c60ff1614155b15610ccb5760019050610cf7565b6000610ce0838686610cdb611a25565b611ac7565b905080610cf1576002915050610cf7565b60009150505b9392505050565b6001811015610e09576009600a604051610d1790614518565b9081526020016040518091039020908060018154018082558091505060019003906000526020600020906003020160009091909190915060008201816000019080546001816001161561010002031660029004610d75929190613c03565b506001820160009054906101000a900460ff168160010160006101000a81548160ff02191690836004811115610da757fe5b02179055506001820160019054906101000a900460ff168160010160016101000a81548160ff021916908360ff16021790555060028201816002019080546001816001161561010002031660029004610e01929190613c03565b50505061122b565b600a811015610f14576009600a604051610e2290614542565b9081526020016040518091039020908060018154018082558091505060019003906000526020600020906003020160009091909190915060008201816000019080546001816001161561010002031660029004610e80929190613c03565b506001820160009054906101000a900460ff168160010160006101000a81548160ff02191690836004811115610eb257fe5b02179055506001820160019054906101000a900460ff168160010160016101000a81548160ff021916908360ff16021790555060028201816002019080546001816001161561010002031660029004610f0c929190613c03565b50505061122a565b601481101561101f576009600a604051610f2d9061452d565b9081526020016040518091039020908060018154018082558091505060019003906000526020600020906003020160009091909190915060008201816000019080546001816001161561010002031660029004610f8b929190613c03565b506001820160009054906101000a900460ff168160010160006101000a81548160ff02191690836004811115610fbd57fe5b02179055506001820160019054906101000a900460ff168160010160016101000a81548160ff021916908360ff16021790555060028201816002019080546001816001161561010002031660029004611017929190613c03565b505050611229565b601e81101561112a576009600a604051611038906144ee565b9081526020016040518091039020908060018154018082558091505060019003906000526020600020906003020160009091909190915060008201816000019080546001816001161561010002031660029004611096929190613c03565b506001820160009054906101000a900460ff168160010160006101000a81548160ff021916908360048111156110c857fe5b02179055506001820160019054906101000a900460ff168160010160016101000a81548160ff021916908360ff16021790555060028201816002019080546001816001161561010002031660029004611122929190613c03565b505050611228565b6009600a60405161113a90614503565b9081526020016040518091039020908060018154018082558091505060019003906000526020600020906003020160009091909190915060008201816000019080546001816001161561010002031660029004611198929190613c03565b506001820160009054906101000a900460ff168160010160006101000a81548160ff021916908360048111156111ca57fe5b02179055506001820160019054906101000a900460ff168160010160016101000a81548160ff021916908360ff16021790555060028201816002019080546001816001161561010002031660029004611224929190613c03565b5050505b5b5b5b50565b6000803090506000813b9050600081149250505090565b600073ffffffffffffffffffffffffffffffffffffffff16600160009054906101000a900473ffffffffffffffffffffffffffffffffffffffff1673ffffffffffffffffffffffffffffffffffffffff1614806112cc575060006112ca600160009054906101000a900473ffffffffffffffffffffffffffffffffffffffff1661200c565b145b156112dd576112db6000612017565b505b600160009054906101000a900473ffffffffffffffffffffffffffffffffffffffff1673ffffffffffffffffffffffffffffffffffffffff166338cc48316040518163ffffffff1660e01b8152600401602060405180830381600087803b15801561134757600080fd5b505af115801561135b573d6000803e3d6000fd5b505050506040513d601f19601f8201168201806040525081019061137f9190613df9565b73ffffffffffffffffffffffffffffffffffffffff1660008054906101000a900473ffffffffffffffffffffffffffffffffffffffff1673ffffffffffffffffffffffffffffffffffffffff16146114b357600160009054906101000a900473ffffffffffffffffffffffffffffffffffffffff1673ffffffffffffffffffffffffffffffffffffffff166338cc48316040518163ffffffff1660e01b8152600401602060405180830381600087803b15801561143b57600080fd5b505af115801561144f573d6000803e3d6000fd5b505050506040513d601f19601f820116820180604052508101906114739190613df9565b6000806101000a81548173ffffffffffffffffffffffffffffffffffffffff021916908373ffffffffffffffffffffffffffffffffffffffff1602179055505b60008054906101000a900473ffffffffffffffffffffffffffffffffffffffff1673ffffffffffffffffffffffffffffffffffffffff1663688dcfd7826040518263ffffffff1660e01b815260040161150c9190614579565b600060405180830381600087803b15801561152657600080fd5b505af115801561153a573d6000803e3d6000fd5b5050505050565b60008083118015611553575060208311155b61155c57600080fd5b600a840293506060600167ffffffffffffffff8111801561157c57600080fd5b506040519080825280601f01601f1916602001820160405280156115af5781602001600182028036833780820191505090505b5090508360f81b816000815181106115c357fe5b60200101907effffffffffffffffffffffffffffffffffffffffffffffffffffffffffffff1916908160001a9053506060602067ffffffffffffffff8111801561160c57600080fd5b506040519080825280601f01601f19166020018201604052801561163f5781602001600182028036833780820191505090505b5090506060602067ffffffffffffffff8111801561165c57600080fd5b506040519080825280601f01601f19166020018201604052801561168f5781602001600182028036833780820191505090505b509050600061169c612028565b9050602083524241186001430340186020840152602082528060208301526060602067ffffffffffffffff811180156116d457600080fd5b506040519080825280601f01601f1916602001820160405280156117075781602001600182028036833780820191505090505b5090508860208201526060600867ffffffffffffffff8111801561172a57600080fd5b506040519080825280601f01601f19166020018201604052801561175d5781602001600182028036833780820191505090505b509050611770826018600884600061233a565b50611779613c8a565b604051806080016040528087815260200188815260200186815260200184815250905060006117de6040518060400160405280600681526020017f72616e646f6d0000000000000000000000000000000000000000000000000000815250838c612399565b90506060600867ffffffffffffffff811180156117fa57600080fd5b506040519080825280601f01601f19166020018201604052801561182d5781602001600182028036833780820191505090505b50905060208401517f0100000000000000000000000000000000000000000000000000000000000000810460278301537e01000000000000000000000000000000000000000000000000000000000000810460268301537d010000000000000000000000000000000000000000000000000000000000810460258301537c0100000000000000000000000000000000000000000000000000000000810460248301537b01000000000000000000000000000000000000000000000000000000810460238301537a010000000000000000000000000000000000000000000000000000810460228301537901000000000000000000000000000000000000000000000000008104602183015378010000000000000000000000000000000000000000000000008104602083015350611a1282828560016004811061196c57fe5b602002015160028760006004811061198057fe5b6020020151604051611992919061442e565b602060405180830381855afa1580156119af573d6000803e3d6000fd5b5050506040513d601f19601f820116820180604052508101906119d29190613e22565b876002600481106119df57fe5b60200201516040516020016119f7949392919061446d565b60405160208183030381529060405280519060200120612716565b8199505050505050505050509392505050565b606060028054600181600116156101000203166002900480601f016020809104026020016040519081016040528092919081815260200182805460018160011615610100020316600290048015611abd5780601f10611a9257610100808354040283529160200191611abd565b820191906000526020600020905b815481529060010190602001808311611aa057829003601f168201915b5050505050905090565b6000806020600287604581518110611adb57fe5b602001015160f81c60f81b60f81c60ff16016044010190506060602067ffffffffffffffff81118015611b0d57600080fd5b506040519080825280601f01601f191660200182016040528015611b405781602001600182028036833780820191505090505b509050611b528783602084600061233a565b5060028487604051602001611b689291906144c6565b604051602081830303815290604052604051611b84919061442e565b602060405180830381855afa158015611ba1573d6000803e3d6000fd5b5050506040513d601f19601f82011682018060405250810190611bc49190613e22565b604051602001611bd49190614413565b60405160208183030381529060405280519060200120818051906020012014611c0257600092505050612004565b60606002886001604986010181518110611c1857fe5b602001015160f81c60f81b60f81c60ff160167ffffffffffffffff81118015611c4057600080fd5b506040519080825280601f01601f191660200182016040528015611c735781602001600182028036833780820191505090505b509050611c888860498501835184600061233a565b50611d05600282604051611c9c919061442e565b602060405180830381855afa158015611cb9573d6000803e3d6000fd5b5050506040513d601f19601f82011682018060405250810190611cdc9190613e22565b878a6008602088010181518110611cef57fe5b602001015160f81c60f81b60f81c60ff16612732565b611d155760009350505050612004565b6060602967ffffffffffffffff81118015611d2f57600080fd5b506040519080825280601f01601f191660200182016040528015611d625781602001600182028036833780820191505090505b509050611d778960208601602984600061233a565b506060604067ffffffffffffffff81118015611d9257600080fd5b506040519080825280601f01601f191660200182016040528015611dc55781602001600182028036833780820191505090505b5090506000604184516029602089010101019050611deb8b60408303604085600061233a565b506000600283604051611dfe919061442e565b602060405180830381855afa158015611e1b573d6000803e3d6000fd5b5050506040513d601f19601f82011682018060405250810190611e3e9190613e22565b90508381604051602001611e53929190614445565b60405160208183030381529060405280519060200120600360008d8152602001908152602001600020541415611e9f57600360008c815260200190815260200160002060009055611eaf565b6000975050505050505050612004565b6060604967ffffffffffffffff81118015611ec957600080fd5b506040519080825280601f01601f191660200182016040528015611efc5781602001600182028036833780820191505090505b509050611f0e8d89604984600061233a565b50611f69600282604051611f22919061442e565b602060405180830381855afa158015611f3f573d6000803e3d6000fd5b5050506040513d601f19601f82011682018060405250810190611f629190613e22565b87866127df565b611f7e57600098505050505050505050612004565b6004600083815260200190815260200160002060009054906101000a900460ff16611fd857611fad8d846129cb565b6004600084815260200190815260200160002060006101000a81548160ff0219169083151502179055505b6004600083815260200190815260200160002060009054906101000a900460ff16985050505050505050505b949350505050565b6000813b9050919050565b6000612021612dbb565b9050919050565b60008073ffffffffffffffffffffffffffffffffffffffff16600160009054906101000a900473ffffffffffffffffffffffffffffffffffffffff1673ffffffffffffffffffffffffffffffffffffffff1614806120b0575060006120ae600160009054906101000a900473ffffffffffffffffffffffffffffffffffffffff1661200c565b145b156120c1576120bf6000612017565b505b600160009054906101000a900473ffffffffffffffffffffffffffffffffffffffff1673ffffffffffffffffffffffffffffffffffffffff166338cc48316040518163ffffffff1660e01b8152600401602060405180830381600087803b15801561212b57600080fd5b505af115801561213f573d6000803e3d6000fd5b505050506040513d601f19601f820116820180604052508101906121639190613df9565b73ffffffffffffffffffffffffffffffffffffffff1660008054906101000a900473ffffffffffffffffffffffffffffffffffffffff1673ffffffffffffffffffffffffffffffffffffffff161461229757600160009054906101000a900473ffffffffffffffffffffffffffffffffffffffff1673ffffffffffffffffffffffffffffffffffffffff166338cc48316040518163ffffffff1660e01b8152600401602060405180830381600087803b15801561221f57600080fd5b505af1158015612233573d6000803e3d6000fd5b505050506040513d601f19601f820116820180604052508101906122579190613df9565b6000806101000a81548173ffffffffffffffffffffffffffffffffffffffff021916908373ffffffffffffffffffffffffffffffffffffffff1602179055505b60008054906101000a900473ffffffffffffffffffffffffffffffffffffffff1673ffffffffffffffffffffffffffffffffffffffff1663abaa5f3e6040518163ffffffff1660e01b815260040160206040518083038186803b1580156122fd57600080fd5b505afa158015612311573d6000803e3d6000fd5b505050506040513d601f19601f820116820180604052508101906123359190613e22565b905090565b606060008285019050808451101561235157600080fd5b600086602001905060008460200190505b86886020010182101561238a5781890151808288015250602082019150602081019050612362565b85935050505095945050505050565b60008073ffffffffffffffffffffffffffffffffffffffff16600160009054906101000a900473ffffffffffffffffffffffffffffffffffffffff1673ffffffffffffffffffffffffffffffffffffffff1614806124215750600061241f600160009054906101000a900473ffffffffffffffffffffffffffffffffffffffff1661200c565b145b15612432576124306000612017565b505b600160009054906101000a900473ffffffffffffffffffffffffffffffffffffffff1673ffffffffffffffffffffffffffffffffffffffff166338cc48316040518163ffffffff1660e01b8152600401602060405180830381600087803b15801561249c57600080fd5b505af11580156124b0573d6000803e3d6000fd5b505050506040513d601f19601f820116820180604052508101906124d49190613df9565b73ffffffffffffffffffffffffffffffffffffffff1660008054906101000a900473ffffffffffffffffffffffffffffffffffffffff1673ffffffffffffffffffffffffffffffffffffffff161461260857600160009054906101000a900473ffffffffffffffffffffffffffffffffffffffff1673ffffffffffffffffffffffffffffffffffffffff166338cc48316040518163ffffffff1660e01b8152600401602060405180830381600087803b15801561259057600080fd5b505af11580156125a4573d6000803e3d6000fd5b505050506040513d601f19601f820116820180604052508101906125c89190613df9565b6000806101000a81548173ffffffffffffffffffffffffffffffffffffffff021916908373ffffffffffffffffffffffffffffffffffffffff1602179055505b6060600467ffffffffffffffff8111801561262257600080fd5b5060405190808252806020026020018201604052801561265657816020015b60608152602001906001900390816126415790505b5090508360006004811061266657fe5b60200201518160008151811061267857fe5b60200260200101819052508360016004811061269057fe5b6020020151816001815181106126a257fe5b6020026020010181905250836002600481106126ba57fe5b6020020151816002815181106126cc57fe5b6020026020010181905250836003600481106126e457fe5b6020020151816003815181106126f657fe5b602002602001018190525061270c858285613312565b9150509392505050565b8060036000848152602001908152602001600020819055505050565b600080600190508284511461274657600080fd5b60005b838110156127d35784818151811061275d57fe5b602001015160f81c60f81b7effffffffffffffffffffffffffffffffffffffffffffffffffffffffffffff191686826020811061279657fe5b1a60f81b7effffffffffffffffffffffffffffffffffffffffffffffffffffffffffffff1916146127c657600091505b8080600101915050612749565b50809150509392505050565b60008060008060006060602067ffffffffffffffff8111801561280157600080fd5b506040519080825280601f01601f1916602001820160405280156128345781602001600182028036833780820191505090505b509050600060208960038151811061284857fe5b602001015160f81c60f81b60f81c60ff1603600401905061286e8982602085600061233a565b91506060602067ffffffffffffffff8111801561288a57600080fd5b506040519080825280601f01601f1916602001820160405280156128bd5781602001600182028036833780820191505090505b5090506022820191506128f98a60208c60018603815181106128db57fe5b602001015160f81c60f81b60f81c60ff16038401602084600061233a565b905060208301519450602081015193506129168b601b878761371f565b80975081985050508573ffffffffffffffffffffffffffffffffffffffff16898051906020012060001c73ffffffffffffffffffffffffffffffffffffffff16141561296c5760019750505050505050506129c4565b6129798b601c878761371f565b80975081985050508573ffffffffffffffffffffffffffffffffffffffff16898051906020012060001c73ffffffffffffffffffffffffffffffffffffffff16149750505050505050505b9392505050565b600080606060028560018601815181106129e157fe5b602001015160f81c60f81b60f81c60ff160167ffffffffffffffff81118015612a0957600080fd5b506040519080825280601f01601f191660200182016040528015612a3c5781602001600182028036833780820191505090505b509050612a4e8585835184600061233a565b506060604067ffffffffffffffff81118015612a6957600080fd5b506040519080825280601f01601f191660200182016040528015612a9c5781602001600182028036833780820191505090505b509050612aaf866004604084600061233a565b506060606267ffffffffffffffff81118015612aca57600080fd5b506040519080825280601f01601f191660200182016040528015612afd5781602001600182028036833780820191505090505b509050600160f81b81600081518110612b1257fe5b60200101907effffffffffffffffffffffffffffffffffffffffffffffffffffffffffffff1916908160001a905350612b538760418803604184600161233a565b5060606040518060400160405280602081526020017ffd94fa71bc0ba10d39d464d0d8f465efeef0a2764e3887fcc9df41ded20f505c8152509050612b9e816000602085604261233a565b50612bf9600283604051612bb2919061442e565b602060405180830381855afa158015612bcf573d6000803e3d6000fd5b5050506040513d601f19601f82011682018060405250810190612bf29190613e22565b85856127df565b945084612c0e57600095505050505050612db5565b60606040518060600160405280604081526020016149106040913990506060604267ffffffffffffffff81118015612c4557600080fd5b506040519080825280601f01601f191660200182016040528015612c785781602001600182028036833780820191505090505b50905060fe60f81b81600081518110612c8d57fe5b60200101907effffffffffffffffffffffffffffffffffffffffffffffffffffffffffffff1916908160001a905350612ccc8a6003604184600161233a565b50606060028b604581518110612cde57fe5b602001015160f81c60f81b60f81c60ff160167ffffffffffffffff81118015612d0657600080fd5b506040519080825280601f01601f191660200182016040528015612d395781602001600182028036833780820191505090505b509050612d4c8b6044835184600061233a565b50612da7600283604051612d60919061442e565b602060405180830381855afa158015612d7d573d6000803e3d6000fd5b5050506040513d601f19601f82011682018060405250810190612da09190613e22565b82856127df565b975087985050505050505050505b92915050565b600080612ddb731d3b2638a7cc9f2cb3d298a3da7a90b67e5506ed61200c565b1115612e7d57731d3b2638a7cc9f2cb3d298a3da7a90b67e5506ed600160006101000a81548173ffffffffffffffffffffffffffffffffffffffff021916908373ffffffffffffffffffffffffffffffffffffffff160217905550612e746040518060400160405280600b81526020017f6574685f6d61696e6e6574000000000000000000000000000000000000000000815250613763565b6001905061330f565b6000612e9c73c03a2615d5efaf5f49f60b7bb6583eaec212fdf161200c565b1115612f3e5773c03a2615d5efaf5f49f60b7bb6583eaec212fdf1600160006101000a81548173ffffffffffffffffffffffffffffffffffffffff021916908373ffffffffffffffffffffffffffffffffffffffff160217905550612f356040518060400160405280600c81526020017f6574685f726f707374656e330000000000000000000000000000000000000000815250613763565b6001905061330f565b6000612f5d73b7a07bcf2ba2f2703b24c0691b5278999c59ac7e61200c565b1115612fff5773b7a07bcf2ba2f2703b24c0691b5278999c59ac7e600160006101000a81548173ffffffffffffffffffffffffffffffffffffffff021916908373ffffffffffffffffffffffffffffffffffffffff160217905550612ff66040518060400160405280600981526020017f6574685f6b6f76616e0000000000000000000000000000000000000000000000815250613763565b6001905061330f565b600061301e73146500cfd35b22e4a392fe0adc06de1a1368ed4861200c565b11156130c05773146500cfd35b22e4a392fe0adc06de1a1368ed48600160006101000a81548173ffffffffffffffffffffffffffffffffffffffff021916908373ffffffffffffffffffffffffffffffffffffffff1602179055506130b76040518060400160405280600b81526020017f6574685f72696e6b656279000000000000000000000000000000000000000000815250613763565b6001905061330f565b60006130df73a2998efd205fb9d4b4963afb70778d6354ad3a4161200c565b11156131815773a2998efd205fb9d4b4963afb70778d6354ad3a41600160006101000a81548173ffffffffffffffffffffffffffffffffffffffff021916908373ffffffffffffffffffffffffffffffffffffffff1602179055506131786040518060400160405280600a81526020017f6574685f676f65726c6900000000000000000000000000000000000000000000815250613763565b6001905061330f565b60006131a0736f485c8bf6fc43ea212e93bbf8ce046c7f1cb47561200c565b111561320457736f485c8bf6fc43ea212e93bbf8ce046c7f1cb475600160006101000a81548173ffffffffffffffffffffffffffffffffffffffff021916908373ffffffffffffffffffffffffffffffffffffffff1602179055506001905061330f565b60006132237320e12a1f859b3feae5fb2a0a32c18f5a65555bbf61200c565b1115613287577320e12a1f859b3feae5fb2a0a32c18f5a65555bbf600160006101000a81548173ffffffffffffffffffffffffffffffffffffffff021916908373ffffffffffffffffffffffffffffffffffffffff1602179055506001905061330f565b60006132a67351efaf4c8b3c9afbd5ab9f4bbc82784ab6ef8faa61200c565b111561330a577351efaf4c8b3c9afbd5ab9f4bbc82784ab6ef8faa600160006101000a81548173ffffffffffffffffffffffffffffffffffffffff021916908373ffffffffffffffffffffffffffffffffffffffff1602179055506001905061330f565b600090505b90565b60008073ffffffffffffffffffffffffffffffffffffffff16600160009054906101000a900473ffffffffffffffffffffffffffffffffffffffff1673ffffffffffffffffffffffffffffffffffffffff16148061339a57506000613398600160009054906101000a900473ffffffffffffffffffffffffffffffffffffffff1661200c565b145b156133ab576133a96000612017565b505b600160009054906101000a900473ffffffffffffffffffffffffffffffffffffffff1673ffffffffffffffffffffffffffffffffffffffff166338cc48316040518163ffffffff1660e01b8152600401602060405180830381600087803b15801561341557600080fd5b505af1158015613429573d6000803e3d6000fd5b505050506040513d601f19601f8201168201806040525081019061344d9190613df9565b73ffffffffffffffffffffffffffffffffffffffff1660008054906101000a900473ffffffffffffffffffffffffffffffffffffffff1673ffffffffffffffffffffffffffffffffffffffff161461358157600160009054906101000a900473ffffffffffffffffffffffffffffffffffffffff1673ffffffffffffffffffffffffffffffffffffffff166338cc48316040518163ffffffff1660e01b8152600401602060405180830381600087803b15801561350957600080fd5b505af115801561351d573d6000803e3d6000fd5b505050506040513d601f19601f820116820180604052508101906135419190613df9565b6000806101000a81548173ffffffffffffffffffffffffffffffffffffffff021916908373ffffffffffffffffffffffffffffffffffffffff1602179055505b60008060009054906101000a900473ffffffffffffffffffffffffffffffffffffffff1673ffffffffffffffffffffffffffffffffffffffff16632ef3accc86856040518363ffffffff1660e01b81526004016135df929190614602565b602060405180830381600087803b1580156135f957600080fd5b505af115801561360d573d6000803e3d6000fd5b505050506040513d601f19601f820116820180604052508101906136319190613f47565b9050823a02670de0b6b3a764000001811115613653576000801b915050613718565b606061365e8561377d565b905060008054906101000a900473ffffffffffffffffffffffffffffffffffffffff1673ffffffffffffffffffffffffffffffffffffffff1663c55c1cb68360008985896040518663ffffffff1660e01b81526004016136c194939291906145af565b6020604051808303818588803b1580156136da57600080fd5b505af11580156136ee573d6000803e3d6000fd5b50505050506040513d601f19601f820116820180604052508101906137139190613e22565b925050505b9392505050565b60008060008060405188815287602082015286604082015285606082015260208160808360006001610bb8f192508051915050818193509350505094509492505050565b8060029080519060200190613779929190613b83565b5050565b60606137876137fa565b61378f613cb1565b61379b81610400613806565b6137a481613850565b60005b83518110156137e3576137d68482815181106137bf57fe5b60200260200101518361385e90919063ffffffff16565b80806001019150506137a7565b506137ed81613883565b8060000151915050919050565b60405180590338823950565b600081905060006020828161381757fe5b0614613830576020818161382757fe5b06602003810190505b808360200181815250506040518084526000815281810160405250505050565b61385b816004613891565b50565b61386b82600283516138b2565b61387e81836139f290919063ffffffff16565b505050565b61388e816007613891565b50565b6138ae601f60058360ff16901b1783613a9d90919063ffffffff16565b5050565b601781116138de576138d98160058460ff16901b60ff161784613a9d90919063ffffffff16565b6139ed565b60ff811161391f57613903601860058460ff16901b1784613a9d90919063ffffffff16565b61391981600185613add9092919063ffffffff16565b506139ec565b61ffff811161396157613945601960058460ff16901b1784613a9d90919063ffffffff16565b61395b81600285613add9092919063ffffffff16565b506139eb565b63ffffffff81116139a557613989601a60058460ff16901b1784613a9d90919063ffffffff16565b61399f81600485613add9092919063ffffffff16565b506139ea565b67ffffffffffffffff81116139e9576139d1601b60058460ff16901b1784613a9d90919063ffffffff16565b6139e781600885613add9092919063ffffffff16565b505b5b5b5b5b505050565b6139fa613cb1565b82602001518360000151518351011115613a2a57613a29836002613a2386602001518651613b44565b02613b60565b5b60008060008451905085518051602081830101945086518101825260208701935050505b60208110613a715781518352602083019250602082019150602081039050613a4e565b60006001826020036101000a039050801983511681855116818117865250508694505050505092915050565b81602001516001836000015151011115613ac357613ac2826002846020015102613b60565b5b815180516020818301018381536001820183525050505050565b613ae5613cb1565b836020015184600001515183011115613b1357613b12846002613b0c876020015186613b44565b02613b60565b5b60006001836101000a0390508451805184818301018684198251161781528582018352505050849150509392505050565b600081831115613b5657829050613b5a565b8190505b92915050565b606082600001519050613b738383613806565b613b7d83826139f2565b50505050565b828054600181600116156101000203166002900490600052602060002090601f016020900481019282601f10613bc457805160ff1916838001178555613bf2565b82800160010185558215613bf2579182015b82811115613bf1578251825591602001919060010190613bd6565b5b509050613bff9190613ccb565b5090565b828054600181600116156101000203166002900490600052602060002090601f016020900481019282601f10613c3c5780548555613c79565b82800160010185558215613c7957600052602060002091601f016020900482015b82811115613c78578254825591600101919060010190613c5d565b5b509050613c869190613ccb565b5090565b60405180608001604052806004905b6060815260200190600190039081613c995790505090565b604051806040016040528060608152602001600081525090565b5b80821115613ce4576000816000905550600101613ccc565b5090565b600081519050613cf7816148ca565b92915050565b600081359050613d0c816148e1565b92915050565b600081519050613d21816148e1565b92915050565b600082601f830112613d3857600080fd5b8135613d4b613d46826146ba565b61468d565b91508082526020830160208301858383011115613d6757600080fd5b613d72838284614860565b50505092915050565b600082601f830112613d8c57600080fd5b8135613d9f613d9a826146e6565b61468d565b91508082526020830160208301858383011115613dbb57600080fd5b613dc6838284614860565b50505092915050565b600081359050613dde816148f8565b92915050565b600081519050613df3816148f8565b92915050565b600060208284031215613e0b57600080fd5b6000613e1984828501613ce8565b91505092915050565b600060208284031215613e3457600080fd5b6000613e4284828501613d12565b91505092915050565b60008060408385031215613e5e57600080fd5b6000613e6c85828601613cfd565b925050602083013567ffffffffffffffff811115613e8957600080fd5b613e9585828601613d7b565b9150509250929050565b600080600060608486031215613eb457600080fd5b6000613ec286828701613cfd565b935050602084013567ffffffffffffffff811115613edf57600080fd5b613eeb86828701613d7b565b925050604084013567ffffffffffffffff811115613f0857600080fd5b613f1486828701613d27565b9150509250925092565b600060208284031215613f3057600080fd5b6000613f3e84828501613dcf565b91505092915050565b600060208284031215613f5957600080fd5b6000613f6784828501613de4565b91505092915050565b6000613f7c838361438b565b905092915050565b6000613f8f82614722565b613f998185614750565b935083602082028501613fab85614712565b8060005b85811015613fe75784840389528151613fc88582613f70565b9450613fd383614743565b925060208a01995050600181019050613faf565b50829750879550505050505092915050565b614002816147bc565b82525050565b614011816147e8565b82525050565b614028614023826147e8565b6148a2565b82525050565b60006140398261472d565b6140438185614761565b935061405381856020860161486f565b61405c816148ac565b840191505092915050565b60006140728261472d565b61407c8185614772565b935061408c81856020860161486f565b80840191505092915050565b6140a18161483c565b82525050565b6140b08161484e565b82525050565b60006140c182614738565b6140cb818561477d565b93506140db81856020860161486f565b6140e4816148ac565b840191505092915050565b60006140fa82614738565b614104818561478e565b935061411481856020860161486f565b61411d816148ac565b840191505092915050565b600061413382614738565b61413d818561479f565b935061414d81856020860161486f565b80840191505092915050565b6000614166604d8361478e565b91507f54686520616d6f756e7420796f752077616e7420746f2070756c6c206973206e60008301527f6f7420617661696c61626c652c206f6e6c792031206f722031302070756c6c7360208301527f2061726520616c6c6f77656421000000000000000000000000000000000000006040830152606082019050919050565b60006141f260088361479f565b91507f54776f20537461720000000000000000000000000000000000000000000000006000830152600882019050919050565b600061423260088361479f565b91507f4f6e6520537461720000000000000000000000000000000000000000000000006000830152600882019050919050565b6000614272602e8361478e565b91507f496e697469616c697a61626c653a20636f6e747261637420697320616c72656160008301527f647920696e697469616c697a65640000000000000000000000000000000000006020830152604082019050919050565b60006142d860098361479f565b91507f46697665205374617200000000000000000000000000000000000000000000006000830152600982019050919050565b6000614318600a8361479f565b91507f54687265652053746172000000000000000000000000000000000000000000006000830152600a82019050919050565b600061435860098361479f565b91507f466f7572205374617200000000000000000000000000000000000000000000006000830152600982019050919050565b600060808301600083015184820360008601526143a882826140b6565b91505060208301516143bd6020860182614098565b5060408301516143d06040860182614404565b50606083015184820360608601526143e882826140b6565b9150508091505092915050565b6143fe81614825565b82525050565b61440d8161482f565b82525050565b600061441f8284614017565b60208201915081905092915050565b600061443a8284614067565b915081905092915050565b60006144518285614067565b915061445d8284614017565b6020820191508190509392505050565b60006144798287614067565b91506144858286614067565b91506144918285614017565b6020820191506144a18284614067565b915081905095945050505050565b60006144bb8284614128565b915081905092915050565b60006144d28285614128565b91506144de8284614017565b6020820191508190509392505050565b60006144f9826141e5565b9150819050919050565b600061450e82614225565b9150819050919050565b6000614523826142cb565b9150819050919050565b60006145388261430b565b9150819050919050565b600061454d8261434b565b9150819050919050565b600060208201905081810360008301526145718184613f84565b905092915050565b600060208201905061458e6000830184613ff9565b92915050565b60006020820190506145a96000830184614008565b92915050565b60006080820190506145c460008301876140a7565b81810360208301526145d681866140ef565b905081810360408301526145ea818561402e565b90506145f960608301846143f5565b95945050505050565b6000604082019050818103600083015261461c81856140ef565b905061462b60208301846143f5565b9392505050565b6000602082019050818103600083015261464b81614159565b9050919050565b6000602082019050818103600083015261466b81614265565b9050919050565b600060208201905061468760008301846143f5565b92915050565b6000604051905081810181811067ffffffffffffffff821117156146b057600080fd5b8060405250919050565b600067ffffffffffffffff8211156146d157600080fd5b601f19601f8301169050602081019050919050565b600067ffffffffffffffff8211156146fd57600080fd5b601f19601f8301169050602081019050919050565b6000819050602082019050919050565b600081519050919050565b600081519050919050565b600081519050919050565b6000602082019050919050565b600082825260208201905092915050565b600082825260208201905092915050565b600081905092915050565b600082825260208201905092915050565b600082825260208201905092915050565b600081905092915050565b60006147b582614805565b9050919050565b60007fff0000000000000000000000000000000000000000000000000000000000000082169050919050565b6000819050919050565b6000819050614800826148bd565b919050565b600073ffffffffffffffffffffffffffffffffffffffff82169050919050565b6000819050919050565b600060ff82169050919050565b6000614847826147f2565b9050919050565b600061485982614825565b9050919050565b82818337600083830152505050565b60005b8381101561488d578082015181840152602081019050614872565b8381111561489c576000848401525b50505050565b6000819050919050565b6000601f19601f8301169050919050565b600581106148c757fe5b50565b6148d3816147aa565b81146148de57600080fd5b50565b6148ea816147e8565b81146148f557600080fd5b50565b61490181614825565b811461490c57600080fd5b5056fe7fb956469c5c9b89840d55b43537e66a98dd4811ea0a27224272c2e5622911e8537a2f8e86a46baec82864e98dd01e9ccc2f8bc5dfc9cbe5a91a290498dd96e4a26469706673582212206746c72ce6a4a769c72313f08e0af7a3106b4dabe0d7b514ea16cc6f13def85664736f6c634300060c0033",
  "immutableReferences": {},
  "source": "pragma solidity >= 0.6;\r\npragma experimental ABIEncoderV2;\r\n\r\nimport \"./ProvableAPI_0.6.sol\";\r\nimport \"./SafeMath.sol\";\r\nimport \"./Initializable.sol\";\r\n\r\n/// @title Gacha game inspired by EpicSeven\r\n/// @author Shane\r\ncontract Gachagang is usingProvable, Initializable {\r\n    \r\n    using SafeMath for uint256;\r\n        \r\n    bytes32 public queryId;\r\n    \r\n    enum Rarity{ One, Two, Three, Four, Five }\r\n\r\n    uint pullCount;\r\n    uint balance;\r\n    \r\n    struct Unit {\r\n        string name;\r\n        Rarity rarity;\r\n        uint8 level;\r\n        string skill;\r\n    }\r\n    \r\n    Unit[] private pulls;\r\n    \r\n    mapping(string => Unit) units;\r\n    \r\n    event Summon(Unit[] units);\r\n    \r\n    /// @dev Remove the created units from constructor and give it an own function to initialize.\r\n    function initialize() public initializer payable {\r\n        provable_setProof(proofType_Ledger);\r\n\r\n        units[\"Five Star\"] = Unit ({\r\n            name: \"Kayron\",\r\n            rarity: Rarity.Five,\r\n            level: 1,\r\n            skill: \"Void slash\"\r\n        });\r\n        \r\n        units[\"Four Star\"] = Unit ({\r\n            name: \"Fighter Maya\",\r\n            rarity: Rarity.Four,\r\n            level: 1,\r\n            skill: \"Strike of Provocation\"\r\n        });\r\n        \r\n        units[\"Three Star\"] = Unit ({\r\n            name: \"Hurado\",\r\n            rarity: Rarity.Three,\r\n            level: 1,\r\n            skill: \"Staff Strike\"\r\n        });\r\n            \r\n        units[\"Two Star\"] = Unit ({\r\n            name: \"Forest Cloud Penguin\",\r\n            rarity: Rarity.Two,\r\n            level: 1,\r\n            skill: \"EXP Fodder\"\r\n        });\r\n    \r\n        units[\"One Star\"] = Unit ({\r\n            name: \"Breezy-Wood Penguin\",\r\n            rarity: Rarity.One,\r\n            level: 1,\r\n            skill: \"EXP Fodder\"\r\n        });\r\n    }\r\n    \r\n    modifier checkPullValidity(uint count) {\r\n        require(count == 1 || count == 10, \"The amount you want to pull is not available, only 1 or 10 pulls are allowed!\");\r\n        _;\r\n    }\r\n        \r\n    function __callback(bytes32  _queryId,string memory _result,bytes memory _proof ) override public {\r\n        if (provable_randomDS_proofVerify__returnCode(_queryId,_result,_proof)== 0) {\r\n            pullUnit(uint256(keccak256(abi.encodePacked(_result))) % 200);\r\n        }\r\n    }\r\n    \r\n    /// @notice Select if you want to do a single or ten pull. \r\n    /// @param count is the amount of pulls you want to do. Only accepts 1 or 10.\r\n    function Pull(uint count) public payable checkPullValidity(count){\r\n        for(uint i = 0; i < count; i++) {\r\n            queryId=provable_newRandomDSQuery(\r\n            0,          // QUERY_EXECUTION_DELAY\r\n            5,          // NUM_RANDOM_BYTES_REQUESTED\r\n            200000      // GAS_FOR_CALLBACK\r\n            );\r\n        }\r\n    }\r\n    \r\n    /// @notice Calculate what unit you have received from your pull\r\n    /// @param rng is the Random value that it receives from the provable callback function\r\n    function pullUnit(uint rng) private {\r\n        if(rng < 1) {\r\n            pulls.push(units[\"Five Star\"]);\r\n        } else if (rng < 10) {\r\n            pulls.push(units[\"Four Star\"]);\r\n        } else if (rng < 20) {\r\n            pulls.push(units[\"Three Star\"]);\r\n        } else if (rng < 30) {\r\n            pulls.push(units[\"Two Star\"]);\r\n        } else {\r\n            pulls.push(units[\"One Star\"]);\r\n        }\r\n    }\r\n    \r\n    /// @notice Get all cards that were pulled\r\n    /// @return a list of cards\r\n    function getUnits() public view returns (Unit[] memory) { \r\n        return pulls;\r\n    }\r\n    \r\n    /// @notice Returns the balance of the user\r\n    /// @dev Add the actual implementation of this\r\n    /// @return the balance\r\n    function getBalance() public view returns (uint) {\r\n        return balance;\r\n    }\r\n\r\n}",
  "sourcePath": "D:/School/truffle_contract/contracts/EpicFive.sol",
  "compiler": {
    "name": "solc",
    "version": "0.6.12+commit.27d51765.Emscripten.clang"
  },
  "schemaVersion": "3.3.2",
  "updatedAt": "2021-01-05T12:21:00.025Z",
  "networkType": "ethereum",
  "devdoc": {
    "author": "Shane",
    "kind": "dev",
    "methods": {
      "Pull(uint256)": {
        "params": {
          "count": "is the amount of pulls you want to do. Only accepts 1 or 10."
        }
      },
      "__callback(bytes32,string)": {
        "details": "The following `__callback` functions are just placeholders ideally      meant to be defined in child contract when proofs are used.      The function bodies simply silence compiler warnings."
      },
      "getBalance()": {
        "details": "Add the actual implementation of this",
        "returns": {
          "_0": "the balance"
        }
      },
      "getUnits()": {
        "returns": {
          "_0": "a list of cards"
        }
      },
      "initialize()": {
        "details": "Remove the created units from constructor and give it an own function to initialize."
      }
    },
    "title": "Gacha game inspired by EpicSeven",
    "version": 1
  },
  "userdoc": {
    "kind": "user",
    "methods": {
      "Pull(uint256)": {
        "notice": "Select if you want to do a single or ten pull. "
      },
      "getBalance()": {
        "notice": "Returns the balance of the user"
      },
      "getUnits()": {
        "notice": "Get all cards that were pulled"
      }
    },
    "version": 1
  }
}