{
  "contractName": "Gachagang",
  "abi": [
    {
      "inputs": [],
      "stateMutability": "nonpayable",
      "type": "constructor"
    },
    {
      "anonymous": false,
      "inputs": [
        {
          "components": [
            {
              "internalType": "string",
              "name": "name",
              "type": "string"
            },
            {
              "internalType": "enum Gachagang.Rarity",
              "name": "rarity",
              "type": "uint8"
            },
            {
              "internalType": "uint8",
              "name": "level",
              "type": "uint8"
            },
            {
              "internalType": "string",
              "name": "skill",
              "type": "string"
            }
          ],
          "indexed": false,
          "internalType": "struct Gachagang.Unit[]",
          "name": "units",
          "type": "tuple[]"
        },
        {
          "indexed": false,
          "internalType": "uint256",
          "name": "balance",
          "type": "uint256"
        }
      ],
      "name": "Summon",
      "type": "event"
    },
    {
      "inputs": [],
      "name": "pullSingleUnit",
      "outputs": [],
      "stateMutability": "nonpayable",
      "type": "function"
    },
    {
      "inputs": [],
      "name": "pullTenUnits",
      "outputs": [],
      "stateMutability": "nonpayable",
      "type": "function"
    },
    {
      "inputs": [],
      "name": "getUnits",
      "outputs": [
        {
          "components": [
            {
              "internalType": "string",
              "name": "name",
              "type": "string"
            },
            {
              "internalType": "enum Gachagang.Rarity",
              "name": "rarity",
              "type": "uint8"
            },
            {
              "internalType": "uint8",
              "name": "level",
              "type": "uint8"
            },
            {
              "internalType": "string",
              "name": "skill",
              "type": "string"
            }
          ],
          "internalType": "struct Gachagang.Unit[]",
          "name": "",
          "type": "tuple[]"
        }
      ],
      "stateMutability": "view",
      "type": "function",
      "constant": true
    },
    {
      "inputs": [],
      "name": "getBalance",
      "outputs": [
        {
          "internalType": "uint256",
          "name": "",
          "type": "uint256"
        }
      ],
      "stateMutability": "view",
      "type": "function",
      "constant": true
    }
  ],
  "bytecode": "0x60806040523480156200001157600080fd5b5061271060008190555060405180608001604052806040518060400160405280600681526020017f4b6179726f6e000000000000000000000000000000000000000000000000000081525081526020016004808111156200006e57fe5b8152602001600160ff1681526020016040518060400160405280600a81526020017f566f696420736c617368000000000000000000000000000000000000000000008152508152506003604051620000c6906200089c565b90815260200160405180910390206000820151816000019080519060200190620000f29291906200067e565b5060208201518160010160006101000a81548160ff021916908360048111156200011857fe5b021790555060408201518160010160016101000a81548160ff021916908360ff16021790555060608201518160020190805190602001906200015c9291906200067e565b5090505060405180608001604052806040518060400160405280600c81526020017f46696768746572204d6179610000000000000000000000000000000000000000815250815260200160036004811115620001b457fe5b8152602001600160ff1681526020016040518060400160405280601581526020017f537472696b65206f662050726f766f636174696f6e000000000000000000000081525081525060036040516200020c90620008ca565b90815260200160405180910390206000820151816000019080519060200190620002389291906200067e565b5060208201518160010160006101000a81548160ff021916908360048111156200025e57fe5b021790555060408201518160010160016101000a81548160ff021916908360ff1602179055506060820151816002019080519060200190620002a29291906200067e565b5090505060405180608001604052806040518060400160405280600681526020017f48757261646f0000000000000000000000000000000000000000000000000000815250815260200160026004811115620002fa57fe5b8152602001600160ff1681526020016040518060400160405280600c81526020017f537461666620537472696b65000000000000000000000000000000000000000081525081525060036040516200035290620008b3565b908152602001604051809103902060008201518160000190805190602001906200037e9291906200067e565b5060208201518160010160006101000a81548160ff02191690836004811115620003a457fe5b021790555060408201518160010160016101000a81548160ff021916908360ff1602179055506060820151816002019080519060200190620003e89291906200067e565b5090505060405180608001604052806040518060400160405280601481526020017f466f7265737420436c6f75642050656e6775696e0000000000000000000000008152508152602001600160048111156200044057fe5b8152602001600160ff1681526020016040518060400160405280600a81526020017f45585020466f6464657200000000000000000000000000000000000000000000815250815250600360405162000498906200086e565b90815260200160405180910390206000820151816000019080519060200190620004c49291906200067e565b5060208201518160010160006101000a81548160ff02191690836004811115620004ea57fe5b021790555060408201518160010160016101000a81548160ff021916908360ff16021790555060608201518160020190805190602001906200052e9291906200067e565b5090505060405180608001604052806040518060400160405280601381526020017f427265657a792d576f6f642050656e6775696e000000000000000000000000008152508152602001600060048111156200058657fe5b8152602001600160ff1681526020016040518060400160405280600a81526020017f45585020466f64646572000000000000000000000000000000000000000000008152508152506003604051620005de9062000885565b908152602001604051809103902060008201518160000190805190602001906200060a9291906200067e565b5060208201518160010160006101000a81548160ff021916908360048111156200063057fe5b021790555060408201518160010160016101000a81548160ff021916908360ff1602179055506060820151816002019080519060200190620006749291906200067e565b50905050620008ec565b828054600181600116156101000203166002900490600052602060002090601f016020900481019282601f10620006c157805160ff1916838001178555620006f2565b82800160010185558215620006f2579182015b82811115620006f1578251825591602001919060010190620006d4565b5b50905062000701919062000705565b5090565b5b808211156200072057600081600090555060010162000706565b5090565b600062000733600883620008e1565b91507f54776f20537461720000000000000000000000000000000000000000000000006000830152600882019050919050565b600062000775600883620008e1565b91507f4f6e6520537461720000000000000000000000000000000000000000000000006000830152600882019050919050565b6000620007b7600983620008e1565b91507f46697665205374617200000000000000000000000000000000000000000000006000830152600982019050919050565b6000620007f9600a83620008e1565b91507f54687265652053746172000000000000000000000000000000000000000000006000830152600a82019050919050565b60006200083b600983620008e1565b91507f466f7572205374617200000000000000000000000000000000000000000000006000830152600982019050919050565b60006200087b8262000724565b9150819050919050565b6000620008928262000766565b9150819050919050565b6000620008a982620007a8565b9150819050919050565b6000620008c082620007ea565b9150819050919050565b6000620008d7826200082c565b9150819050919050565b600081905092915050565b61180180620008fc6000396000f3fe608060405234801561001057600080fd5b506004361061004c5760003560e01c8063027aa9f51461005157806312065fe01461006f57806334adcad41461008d5780636b5b4e9f14610097575b600080fd5b6100596100a1565b604051610066919061154c565b60405180910390f35b6100776102d6565b60405161008491906115fe565b60405180910390f35b6100956102df565b005b61009f6108d2565b005b60606000600280549050116100eb576040517f08c379a00000000000000000000000000000000000000000000000000000000081526004016100e2906115de565b60405180910390fd5b6002805480602002602001604051908101604052809291908181526020016000905b828210156102cd5783829060005260206000209060030201604051806080016040529081600082018054600181600116156101000203166002900480601f0160208091040260200160405190810160405280929190818152602001828054600181600116156101000203166002900480156101c95780601f1061019e576101008083540402835291602001916101c9565b820191906000526020600020905b8154815290600101906020018083116101ac57829003601f168201915b505050505081526020016001820160009054906101000a900460ff1660048111156101f057fe5b60048111156101fb57fe5b81526020016001820160019054906101000a900460ff1660ff1660ff168152602001600282018054600181600116156101000203166002900480601f0160208091040260200160405190810160405280929190818152602001828054600181600116156101000203166002900480156102b55780601f1061028a576101008083540402835291602001916102b5565b820191906000526020600020905b81548152906001019060200180831161029857829003601f168201915b5050505050815250508152602001906001019061010d565b50505050905090565b60008054905090565b6101f46000541015610326576040517f08c379a000000000000000000000000000000000000000000000000000000000815260040161031d906115be565b60405180910390fd5b6000600190505b600b81101561088257600061034182610e6f565b905061011381101561044f576002600360405161035d906114d0565b90815260200160405180910390209080600181540180825580915050600190039060005260206000209060030201600090919091909150600082018160000190805460018160011615610100020316600290046103bb929190610eb6565b506001820160009054906101000a900460ff168160010160006101000a81548160ff021916908360048111156103ed57fe5b02179055506001820160019054906101000a900460ff168160010160016101000a81548160ff021916908360ff16021790555060028201816002019080546001816001161561010002031660029004610447929190610eb6565b505050610874565b6102ee81101561055b5760026003604051610469906114fa565b90815260200160405180910390209080600181540180825580915050600190039060005260206000209060030201600090919091909150600082018160000190805460018160011615610100020316600290046104c7929190610eb6565b506001820160009054906101000a900460ff168160010160006101000a81548160ff021916908360048111156104f957fe5b02179055506001820160019054906101000a900460ff168160010160016101000a81548160ff021916908360ff16021790555060028201816002019080546001816001161561010002031660029004610553929190610eb6565b505050610873565b6104e28110156106675760026003604051610575906114e5565b90815260200160405180910390209080600181540180825580915050600190039060005260206000209060030201600090919091909150600082018160000190805460018160011615610100020316600290046105d3929190610eb6565b506001820160009054906101000a900460ff168160010160006101000a81548160ff0219169083600481111561060557fe5b02179055506001820160019054906101000a900460ff168160010160016101000a81548160ff021916908360ff1602179055506002820181600201908054600181600116156101000203166002900461065f929190610eb6565b505050610872565b610bb88110156107735760026003604051610681906114a6565b90815260200160405180910390209080600181540180825580915050600190039060005260206000209060030201600090919091909150600082018160000190805460018160011615610100020316600290046106df929190610eb6565b506001820160009054906101000a900460ff168160010160006101000a81548160ff0219169083600481111561071157fe5b02179055506001820160019054906101000a900460ff168160010160016101000a81548160ff021916908360ff1602179055506002820181600201908054600181600116156101000203166002900461076b929190610eb6565b505050610871565b60026003604051610783906114bb565b90815260200160405180910390209080600181540180825580915050600190039060005260206000209060030201600090919091909150600082018160000190805460018160011615610100020316600290046107e1929190610eb6565b506001820160009054906101000a900460ff168160010160006101000a81548160ff0219169083600481111561081357fe5b02179055506001820160019054906101000a900460ff168160010160016101000a81548160ff021916908360ff1602179055506002820181600201908054600181600116156101000203166002900461086d929190610eb6565b5050505b5b5b5b50808060010191505061032d565b506101f460008082825403925050819055507ffe164e0bea9eafad20b7c455bf64a4ed33f80156f326c20268c9c2b96a75951960026000546040516108c892919061156e565b60405180910390a1565b60006108de6001610e6f565b9050603260ff166000541015610929576040517f08c379a00000000000000000000000000000000000000000000000000000000081526004016109209061159e565b60405180910390fd5b603260ff1660008082825403925050819055506096811015610a475760026003604051610955906114d0565b90815260200160405180910390209080600181540180825580915050600190039060005260206000209060030201600090919091909150600082018160000190805460018160011615610100020316600290046109b3929190610eb6565b506001820160009054906101000a900460ff168160010160006101000a81548160ff021916908360048111156109e557fe5b02179055506001820160019054906101000a900460ff168160010160016101000a81548160ff021916908360ff16021790555060028201816002019080546001816001161561010002031660029004610a3f929190610eb6565b505050610e6c565b6101f4811015610b535760026003604051610a61906114fa565b9081526020016040518091039020908060018154018082558091505060019003906000526020600020906003020160009091909190915060008201816000019080546001816001161561010002031660029004610abf929190610eb6565b506001820160009054906101000a900460ff168160010160006101000a81548160ff02191690836004811115610af157fe5b02179055506001820160019054906101000a900460ff168160010160016101000a81548160ff021916908360ff16021790555060028201816002019080546001816001161561010002031660029004610b4b929190610eb6565b505050610e6b565b6102ee811015610c5f5760026003604051610b6d906114e5565b9081526020016040518091039020908060018154018082558091505060019003906000526020600020906003020160009091909190915060008201816000019080546001816001161561010002031660029004610bcb929190610eb6565b506001820160009054906101000a900460ff168160010160006101000a81548160ff02191690836004811115610bfd57fe5b02179055506001820160019054906101000a900460ff168160010160016101000a81548160ff021916908360ff16021790555060028201816002019080546001816001161561010002031660029004610c57929190610eb6565b505050610e6a565b610bb8811015610d6b5760026003604051610c79906114a6565b9081526020016040518091039020908060018154018082558091505060019003906000526020600020906003020160009091909190915060008201816000019080546001816001161561010002031660029004610cd7929190610eb6565b506001820160009054906101000a900460ff168160010160006101000a81548160ff02191690836004811115610d0957fe5b02179055506001820160019054906101000a900460ff168160010160016101000a81548160ff021916908360ff16021790555060028201816002019080546001816001161561010002031660029004610d63929190610eb6565b505050610e69565b60026003604051610d7b906114bb565b9081526020016040518091039020908060018154018082558091505060019003906000526020600020906003020160009091909190915060008201816000019080546001816001161561010002031660029004610dd9929190610eb6565b506001820160009054906101000a900460ff168160010160006101000a81548160ff02191690836004811115610e0b57fe5b02179055506001820160019054906101000a900460ff168160010160016101000a81548160ff021916908360ff16021790555060028201816002019080546001816001161561010002031660029004610e65929190610eb6565b5050505b5b5b5b50565b600080612710428444604051602001610e8a9392919061150f565b6040516020818303038152906040528051906020012060001c81610eaa57fe5b06905080915050919050565b828054600181600116156101000203166002900490600052602060002090601f016020900481019282601f10610eef5780548555610f2c565b82800160010185558215610f2c57600052602060002091601f016020900482015b82811115610f2b578254825591600101919060010190610f10565b5b509050610f399190610f3d565b5090565b5b80821115610f56576000816000905550600101610f3e565b5090565b6000610f66838361138e565b905092915050565b6000610f7a83836113f8565b905092915050565b6000610f8d82611653565b610f97818561168e565b935083602082028501610fa985611619565b8060005b85811015610fe55784840389528151610fc68582610f5a565b9450610fd183611674565b925060208a01995050600181019050610fad565b50829750879550505050505092915050565b60006110028261165e565b61100c818561168e565b93508360208202850161101e85611629565b8060005b858110156110595784840389528161103a8582610f6e565b945061104583611681565b925060208a01995050600181019050611022565b50829750879550505050505092915050565b61107481611710565b82525050565b600061108582611669565b61108f818561169f565b935061109f818560208601611722565b6110a881611793565b840191505092915050565b6000815460018116600081146110d057600181146110f65761113a565b607f60028304166110e1818761169f565b955060ff19831686526020860193505061113a565b60028204611104818761169f565b955061110f8561163e565b60005b8281101561113157815481890152600182019150602081019050611112565b80880195505050505b505092915050565b600061114f6028836116b0565b91507f596f7520646f206e6f74206861766520656e6f7567682067656d7320746f206160008301527f2073756d6d6f6e2e0000000000000000000000000000000000000000000000006020830152604082019050919050565b60006111b56008836116c1565b91507f54776f20537461720000000000000000000000000000000000000000000000006000830152600882019050919050565b60006111f56008836116c1565b91507f4f6e6520537461720000000000000000000000000000000000000000000000006000830152600882019050919050565b60006112356009836116c1565b91507f46697665205374617200000000000000000000000000000000000000000000006000830152600982019050919050565b6000611275600a836116c1565b91507f54687265652053746172000000000000000000000000000000000000000000006000830152600a82019050919050565b60006112b5602e836116b0565b91507f596f7520646f206e6f74206861766520656e6f7567682067656d7320746f206460008301527f6f20612031302073756d6d6f6e2e0000000000000000000000000000000000006020830152604082019050919050565b600061131b6009836116c1565b91507f466f7572205374617200000000000000000000000000000000000000000000006000830152600982019050919050565b600061135b601f836116b0565b91507f4e6f20756e69747320617661696c61626c6520746f2072657472696576652e006000830152602082019050919050565b600060808301600083015184820360008601526113ab828261107a565b91505060208301516113c0602086018261106b565b5060408301516113d36040860182611497565b50606083015184820360608601526113eb828261107a565b9150508091505092915050565b6000608083016000808401858303600087015261141583826110b3565b9250506001840154905061142881611755565b611435602087018261106b565b5061143f8161176f565b61144c6040870182611497565b5060028401858303606087015261146383826110b3565b925050819250505092915050565b61147a816116f9565b82525050565b61149161148c826116f9565b611789565b82525050565b6114a081611703565b82525050565b60006114b1826111a8565b9150819050919050565b60006114c6826111e8565b9150819050919050565b60006114db82611228565b9150819050919050565b60006114f082611268565b9150819050919050565b60006115058261130e565b9150819050919050565b600061151b8286611480565b60208201915061152b8285611480565b60208201915061153b8284611480565b602082019150819050949350505050565b600060208201905081810360008301526115668184610f82565b905092915050565b600060408201905081810360008301526115888185610ff7565b90506115976020830184611471565b9392505050565b600060208201905081810360008301526115b781611142565b9050919050565b600060208201905081810360008301526115d7816112a8565b9050919050565b600060208201905081810360008301526115f78161134e565b9050919050565b60006020820190506116136000830184611471565b92915050565b6000819050602082019050919050565b60008190508160005260206000209050919050565b60008190508160005260206000209050919050565b600081519050919050565b600081549050919050565b600081519050919050565b6000602082019050919050565b6000600382019050919050565b600082825260208201905092915050565b600082825260208201905092915050565b600082825260208201905092915050565b600081905092915050565b600060ff82169050919050565b600060ff82169050919050565b60008190506116f4826117be565b919050565b6000819050919050565b600060ff82169050919050565b600061171b826116e6565b9050919050565b60005b83811015611740578082015181840152602081019050611725565b8381111561174f576000848401525b50505050565b6000611768611763836117a4565b6116cc565b9050919050565b600061178261177d836117b1565b6116d9565b9050919050565b6000819050919050565b6000601f19601f8301169050919050565b60008160001c9050919050565b60008160081c9050919050565b600581106117c857fe5b5056fea2646970667358221220e9e90b7f535fa08f36c35888449050392c1113e439d08071892df74bbad9df6564736f6c634300060c0033",
  "immutableReferences": {},
  "source": "pragma solidity ^0.6.0;\r\npragma experimental ABIEncoderV2;\r\n\r\ncontract Gachagang {\r\n    enum Rarity{ One, Two, Three, Four, Five }\r\n\r\n    uint8 constant singleCost = 50;\r\n    uint constant tenCost = 500;\r\n    \r\n    uint balance;\r\n    \r\n    struct Unit {\r\n        string name;\r\n        Rarity rarity;\r\n        uint8 level;\r\n        string skill;\r\n    }\r\n    \r\n    // Added banner struct for specific character pools\r\n    struct Banner {\r\n        string name;\r\n        Unit unit;\r\n    }\r\n    \r\n    Unit[] private allUnits;\r\n    Unit[] private pulls;\r\n    \r\n    mapping(string => Unit) units;\r\n    \r\n    event Summon(Unit[] units, uint balance);\r\n    \r\n    \r\n    constructor() public {\r\n        balance = 10000;\r\n        \r\n        units[\"Five Star\"] = Unit ({\r\n            name: \"Kayron\",\r\n            rarity: Rarity.Five,\r\n            level: 1,\r\n            skill: \"Void slash\"\r\n        });\r\n        \r\n        units[\"Four Star\"] = Unit ({\r\n            name: \"Fighter Maya\",\r\n            rarity: Rarity.Four,\r\n            level: 1,\r\n            skill: \"Strike of Provocation\"\r\n        });\r\n        \r\n        units[\"Three Star\"] = Unit ({\r\n            name: \"Hurado\",\r\n            rarity: Rarity.Three,\r\n            level: 1,\r\n            skill: \"Staff Strike\"\r\n        });\r\n        \r\n        units[\"Two Star\"] = Unit ({\r\n            name: \"Forest Cloud Penguin\",\r\n            rarity: Rarity.Two,\r\n            level: 1,\r\n            skill: \"EXP Fodder\"\r\n        });\r\n\r\n        units[\"One Star\"] = Unit ({\r\n            name: \"Breezy-Wood Penguin\",\r\n            rarity: Rarity.One,\r\n            level: 1,\r\n            skill: \"EXP Fodder\"\r\n        });\r\n    }\r\n    \r\n    function randomizedNumber(uint count) private view returns (uint) {\r\n        uint random =  uint(keccak256(abi.encodePacked(block.timestamp, count, block.difficulty)))%10000;\r\n        return random;\r\n    }\r\n    \r\n    function pullSingleUnit() public {\r\n        uint rng = randomizedNumber(1);\r\n        require(balance >= singleCost, \"You do not have enough gems to a summon.\");\r\n        balance -= singleCost;\r\n        if(rng < 150) {\r\n            pulls.push(units[\"Five Star\"]);\r\n        } else if (rng < 500) {\r\n            pulls.push(units[\"Four Star\"]);\r\n        } else if (rng < 750) {\r\n            pulls.push(units[\"Three Star\"]);\r\n        } else if (rng < 3000) {\r\n            pulls.push(units[\"Two Star\"]);\r\n        } else {\r\n            pulls.push(units[\"One Star\"]);\r\n        }\r\n    }\r\n    \r\n    function pullTenUnits() public {\r\n        require(balance >= tenCost, \"You do not have enough gems to do a 10 summon.\");\r\n        for(uint i = 1; i < 11; i++){\r\n            uint rng = randomizedNumber(i);\r\n            if(rng < 275) {\r\n                pulls.push(units[\"Five Star\"]);\r\n            } else if (rng < 750) {\r\n                pulls.push(units[\"Four Star\"]);\r\n            } else if (rng < 1250) {\r\n                pulls.push(units[\"Three Star\"]);\r\n            } else if (rng < 3000) {\r\n                pulls.push(units[\"Two Star\"]);\r\n            } else {\r\n                pulls.push(units[\"One Star\"]);\r\n            }\r\n        }\r\n        balance -= tenCost;\r\n        emit Summon(pulls, balance);\r\n    }\r\n    \r\n    function getUnits() public view returns (Unit[] memory) { \r\n        require((pulls.length > 0), \"No units available to retrieve.\");\r\n        return pulls;\r\n    }\r\n    \r\n    function getBalance() public view returns (uint) {\r\n        return balance;\r\n    }\r\n\r\n}",
  "sourcePath": "D:/School/truffle_contract/contracts/EpicFive.sol",
  "compiler": {
    "name": "solc",
    "version": "0.6.12+commit.27d51765.Emscripten.clang"
  },
  "schemaVersion": "3.3.2",
  "updatedAt": "2020-12-16T14:56:50.055Z",
  "networkType": "ethereum",
  "devdoc": {
    "kind": "dev",
    "methods": {},
    "version": 1
  },
  "userdoc": {
    "kind": "user",
    "methods": {},
    "version": 1
  }
}